:100000000C9434000C9451000C9451000C94510049
:100010000C9451000C9451000C9451000C9451001C
:100020000C9451000C9451000C9451000C9451000C
:100030000C9451000C9451000C9451000C945100FC
:100040000C9451000C9451000C949D010C94C1012E
:100050000C9451000C9451000C9451000C945100DC
:100060000C9451000C94510011241FBECFEFD8E026
:10007000DEBFCDBF11E0A0E0B1E0E6E8F4E002C0F1
:1000800005900D92A431B107D9F721E0A4E1B1E0C8
:1000900001C01D92AA3EB207E1F70E9459000C94DC
:1000A00041020C94000061E080E090E00E942F0289
:1000B0000895209A0E94530080E021E090E0882378
:1000C00019F02898892F02C0289A822F3FEF43ED1C
:1000D00050E3315040405040E1F700C00000EFCF06
:1000E0006FEF80E090E00E942F0298E088E10FB669
:1000F000F894A895809360000FBE90936000FFCFA6
:100100001092C000E1ECF0E088E18083808180689B
:10011000808386E08093C200DB01CA0180589B4740
:10012000A14EBF4F880F991FAA1FBB1F880F991F91
:10013000AA1FBB1F880F991FAA1FBB1F440F551F63
:10014000661F771F440F551F661F771F9A01AB016B
:10015000220F331F441F551F220F331F441F551FEB
:10016000BC01CD010E940D0221502093C4001092C9
:10017000C500789408959091150180911401981705
:10018000A1F0E0911401F0E0EC5AFE4F80819091D3
:1001900014019F5F21E0963908F420E03AE6239F9E
:1001A000900D11249093140108958FEF089580917C
:1001B0001501909114018A56891B91E0863908F443
:1001C00090E02AE6929F800D112408951092150167
:1001D0001092140108950895089524E031E0FC017F
:1001E000318320830895809115012091140190E0BE
:1001F000019666E970E00E94F90130E082179307EA
:1002000091F0E0911501F0E08091C600EC5AFE4FAC
:1002100080838091150190E0019666E970E00E946C
:10022000F9018093150108958093C600E0ECF0E099
:1002300080818064808308959091170180911601D8
:10024000981739F1E1ECF0E080818F7D8083E0EC5C
:10025000F0E0808185FFFDCFE0911601F0E0E85EDF
:10026000FE4F80810E9414018091160190E001965A
:100270006CE370E00E94F9018093160190911701E0
:1002800080911601981729F0E1ECF0E080818062FE
:1002900080830895E1ECF0E080818F7D80839091F0
:1002A000170180911601981741F00E941C0190914E
:1002B0001701809116019813F8CFE0ECF0E08081EF
:1002C00086FFFDCF0895CF93C62F209117019091FF
:1002D000160129131DC08091C00085FD29C018C0DA
:1002E0000E941C01E0911701F0E0E85EFE4FC08320
:1002F0008091170190E001966CE370E00E94F90193
:1003000080931701E1ECF0E080818062808313C06C
:100310009091170120911601892F90E001966CE3CE
:1003200070E00E94F90130E082179307D9F6D8CF28
:10033000862F0E941401CF9108951F920F920FB63D
:100340000F9211242F933F934F935F936F937F935B
:100350008F939F93AF93BF93EF93FF930E94F3000C
:10036000FF91EF91BF91AF919F918F917F916F918D
:100370005F914F913F912F910F900FBE0F901F9063
:1003800018951F920F920FB60F9211242F933F933F
:100390004F935F936F937F938F939F93AF93BF938D
:1003A000EF93FF930E941C01FF91EF91BF91AF91DA
:1003B0009F918F917F916F915F914F913F912F917D
:1003C0000F900FBE0F901F901895AA1BBB1B51E1F9
:1003D00007C0AA1FBB1FA617B70710F0A61BB70BB5
:1003E000881F991F5A95A9F780959095BC01CD015A
:1003F000089597FB072E16F4009407D077FD09D0D7
:100400000E94E50107FC05D03EF4909581959F4F31
:100410000895709561957F4F0895A1E21A2EAA1B49
:10042000BB1BFD010DC0AA1FBB1FEE1FFF1FA217A4
:10043000B307E407F50720F0A21BB30BE40BF50BA1
:10044000661F771F881F991F1A9469F7609570952A
:10045000809590959B01AC01BD01CF010895262F99
:10046000F999FECF92BD81BDF89A019700B40216AA
:1004700039F01FBA20BD0FB6F894FA9AF99A0FBE58
:060480000895F894FFCF7F
:10048600000000008000D700BB0063014A01E600BF
:04049600EB00EC008B
:00000001FF
