:200000000C9434000C9451000C9451000C9451000C9451000C9451000C9451000C94510075
:200020000C9451000C9451000C9451000C9451000C9451000C9451000C9451000C94510038
:200040000C9451000C9451000C94A6010C94CA010C9451000C9451000C9451000C94510048
:200060000C9451000C94510011241FBECFEFD8E0DEBFCDBF11E0A0E0B1E0E8E9F4E002C084
:2000800005900D92A431B107D9F721E0A4E1B1E001C01D92AA3EB207E1F70E9453000C943A
:2000A0004A020C940000209A289A81E021E090E0882319F02898892F02C0289A822F3FEF77
:2000C00049E658E1315040405040E1F700C00000EFCF61E080E090E00E94380261E081E042
:2000E00090E00E94380260E082E090E00E94380208956FEF80E090E00E94380298E088E13E
:200100000FB6F894A895809360000FBE90936000FFCF1092C000E1ECF0E088E18083808154
:200120008068808386E08093C200DB01CA0180589B47A14EBF4F880F991FAA1FBB1F880FB2
:20014000991FAA1FBB1F880F991FAA1FBB1F440F551F661F771F440F551F661F771F9A01F3
:20016000AB01220F331F441F551F220F331F441F551FBC01CD010E94160221502093C400F2
:200180001092C5007894089590911501809114019817A1F0E0911401F0E0EC5AFE4F8081C8
:2001A000909114019F5F21E0963908F420E03AE6239F900D11249093140108958FEF08959B
:2001C00080911501909114018A56891B91E0863908F490E02AE6929F800D11240895109260
:2001E00015011092140108950895089524E031E0FC01318320830895809115012091140168
:2002000090E0019666E970E00E94020230E08217930791F0E0911501F0E08091C600EC5A5A
:20022000FE4F80838091150190E0019666E970E00E9402028093150108958093C600E0EC90
:20024000F0E080818064808308959091170180911601981739F1E1ECF0E080818F7D808362
:20026000E0ECF0E0808185FFFDCFE0911601F0E0E85EFE4F80810E941D018091160190E04D
:2002800001966CE370E00E940202809316019091170180911601981729F0E1ECF0E0808191
:2002A000806280830895E1ECF0E080818F7D80839091170180911601981741F00E94250106
:2002C00090911701809116019813F8CFE0ECF0E0808186FFFDCF0895CF93C62F20911701A0
:2002E0009091160129131DC08091C00085FD29C018C00E942501E0911701F0E0E85EFE4FE5
:20030000C0838091170190E001966CE370E00E94020280931701E1ECF0E080818062808377
:2003200013C09091170120911601892F90E001966CE370E00E94020230E082179307D9F6D3
:20034000D8CF862F0E941D01CF9108951F920F920FB60F9211242F933F934F935F936F932D
:200360007F938F939F93AF93BF93EF93FF930E94FC00FF91EF91BF91AF919F918F917F91D1
:200380006F915F914F913F912F910F900FBE0F901F9018951F920F920FB60F9211242F93E7
:2003A0003F934F935F936F937F938F939F93AF93BF93EF93FF930E942501FF91EF91BF915F
:2003C000AF919F918F917F916F915F914F913F912F910F900FBE0F901F901895AA1BBB1B1B
:2003E00051E107C0AA1FBB1FA617B70710F0A61BB70B881F991F5A95A9F780959095BC017E
:20040000CD01089597FB072E16F4009407D077FD09D00E94EE0107FC05D03EF49095819512
:200420009F4F0895709561957F4F0895A1E21A2EAA1BBB1BFD010DC0AA1FBB1FEE1FFF1FCC
:20044000A217B307E407F50720F0A21BB30BE40BF50B661F771F881F991F1A9469F760954B
:200460007095809590959B01AC01BD01CF010895262FF999FECF92BD81BDF89A019700B4AA
:20048000021639F01FBA20BD0FB6F894FA9AF99A0FBE0895F894FFCF000000008900E000C0
:2004A000C4006C015301EF00F400F500FFFFFFFFFFFFFFFFFFFFFFFFFFFFFFFFFFFFFFFFF3
:2004C000FFFFFFFFFFFFFFFFFFFFFFFFFFFFFFFFFFFFFFFFFFFFFFFFFFFFFFFFFFFFFFFF3C
:2004E000FFFFFFFFFFFFFFFFFFFFFFFFFFFFFFFFFFFFFFFFFFFFFFFFFFFFFFFFFFFFFFFF1C
:20050000FFFFFFFFFFFFFFFFFFFFFFFFFFFFFFFFFFFFFFFFFFFFFFFFFFFFFFFFFFFFFFFFFB
:20052000FFFFFFFFFFFFFFFFFFFFFFFFFFFFFFFFFFFFFFFFFFFFFFFFFFFFFFFFFFFFFFFFDB
:207C000033C0000041C000003FC000003DC000003BC0000039C0000037C0000035C0000094
:207C200033C0000031C000002FC000002DC000002BC0000029C0000027C0000025C00000E4
:207C400023C0000021C000001FC000001DC000001BC0000019C0000017C0000015C0000044
:207C600013C0000011C0000011241FBECFEFD8E0DEBFCDBF21E0A0E0B1E001C01D92AA384B
:207C8000B207E1F7DDD080C1BBCF8091C00087FFFCCF8091C6002091070130910801282710
:207CA000922F92959227092E969596959025092E969590259770022E232F9695079497954F
:207CC000302D292706949795302529273093080120930701089580910301882321F0579AA6
:207CE0004F98109200010895289A2FEF80E792E0215080409040E1F700C0000028982FEF2D
:207D000080E792E0215080409040E1F700C000000895FF920F931F93CF93DF9380938901FE
:207D20008FEF9FEF9093080180930701109201010FEF1FEFD1E08091C00087FFFCCF80915C
:207D4000C6008F3F09F06EC08091C00087FFFCCF8091C6008F3F09F065C097DF80930201F7
:207D600094DF80930101C0E020910101C21758F4FF24F394FC0E89DFEC2FF0E0E75FFE4F69
:207D80008083CF2DF1CF822F9091C00097FFFCCF9091C6009091C00097FFFCCF9091C60021
:207DA00090910201913F21F45798D09303013BC0943F61F4109203018FEF9FEF9093080163
:207DC000809307011092010182E034C030910301313049F5923F29F480910901809300010D
:207DE00022C0933F01F52138E8F42091000190918901291317C09FEF87FD07C0E82FF0E074
:207E0000E75FFE4F90838F5FF7CF8093010157988FEF9FEF9093080180930701109201010D
:207E200081E008C058DF10930801009307011092010181CFDF91CF911F910F91FF9008955B
:207E40001F93CF93DF9384B7877F84BF8091600088618093600010926000209A80E090E0BF
:207E600079D0813019F452984A9B66C03DDF3CDF579A4F98589A80E18093C10086E0809357
:207E8000C20088E090E09093C5008093C40013E0D1E0C5E0809106013CDF813009F035C06E
:207EA0008091040190910501FC0110935700E89507B600FCFDCF20E030E0D901A75FBE4F8F
:207EC0004C91F901E80FF91F11966C9150E0562B0A01D0935700E89511242E5F3F4F20387D
:207EE000310559F7FC01C0935700E89507B600FCFDCF80589F4F909305018093040180913B
:207F000006018F5F80930601C5CF823009F0C2CF81E180935700E895579861E080E090E039
:207F200021D098E088E10FB6F894A895809360000FBE90936000FFCF6FEF80E090E012D040
:207F4000D3DED2DE0C94000080E090E0DF91CF911F910895F999FECF92BD81BDF89A9927F5
:207F600080B50895262FF999FECF92BD81BDF89A019700B4021639F01FBA20BD0FB6F894C8
:0C7F8000FA9AF99A0FBE0895F894FFCF0A
:00000001FF
