:107C000033C0000041C000003FC000003DC0000084
:107C10003BC0000039C0000037C0000035C0000084
:107C200033C0000031C000002FC000002DC0000094
:107C30002BC0000029C0000027C0000025C00000A4
:107C400023C0000021C000001FC000001DC00000B4
:107C50001BC0000019C0000017C0000015C00000C4
:107C600013C0000011C0000011241FBECFEFD8E0E8
:107C7000DEBFCDBF21E0A0E0B1E001C01D92AA3877
:107C8000B207E1F7D6D079C1BBCF8091C00087FFA2
:107C9000FCCF8091C6002091070130910801282770
:107CA000922F92959227092E969596959025092EBA
:107CB000969590259770022E232F96950794979569
:107CC000302D2927069497953025292730930801D0
:107CD0002093070108952D9A2FEF80E792E021501D
:107CE00080409040E1F700C000002D982FEF80E722
:107CF00092E0215080409040E1F700C000000895DC
:107D0000FF920F931F93CF93DF93809389018FEF9F
:107D10009FEF909308018093070110920101D1E039
:107D20000FEF1FEF8091C00087FFFCCF8091C6004E
:107D30008F3F09F057C08091C00087FFFCCF809132
:107D4000C6008F3F09F04EC0A0DF809302019DDF87
:107D500080930101C0E080910101C81758F4FF240D
:107D6000F394FC0E92DFEC2FF0E0E75FFE4F808390
:107D7000CF2DF1CF9091C00097FFFCCF9091C6001E
:107D80009091C00097FFFCCF9091C60090910201A6
:107D9000913F19F4D09303013FC0943F61F41092D6
:107DA00003018FEF9FEF90930801809307011092DA
:107DB000010182E038C020910301213069F5923F32
:107DC00029F4809109018093000126C0933F21F599
:107DD000813860F42091000190918901291306C037
:107DE0009FEF07C0809103018823B1F0109200013A
:107DF00013C087FD07C0E82FF0E0E75FFE4F9083D8
:107E00008F5FF7CF8FEF9FEF90930801809307016B
:107E10001092010181E007C010930801009307014F
:107E2000109201017FCFDF91CF911F910F91FF90B1
:107E300008951F93CF93DF9384B7877F84BF80918A
:107E4000600088618093600010926000259A80E055
:107E500090E079D0813009F468C03DDF3CDF3BDF42
:107E60003ADF39DF589A80E18093C10086E0809341
:107E7000C20088E090E09093C5008093C40013E0B6
:107E8000D1E0C5E0809106013BDF813009F035C0CB
:107E90008091040190910501FC0110935700E89531
:107EA00007B600FCFDCF20E030E0D901A75FBE4F50
:107EB0004C91F901E80FF91F11966C9150E0562B87
:107EC0000A01D0935700E89511242E5F3F4F2038C8
:107ED000310559F7FC01C0935700E89507B600FC3F
:107EE000FDCF80589F4F90930501809304018091AE
:107EF00006018F5F80930601C5CF823009F0C2CFA3
:107F000081E180935700E89561E080E090E023D024
:107F1000F999FECF98E088E10FB6F894A895809380
:107F200060000FBE90936000FFCF6FEF80E090E0A5
:107F300012D0D1DED0DE0C94000080E090E0DF9122
:107F4000CF911F910895F999FECF92BD81BDF89A06
:107F5000992780B50895262FF999FECF92BD81BD4E
:107F6000F89A019700B4021639F01FBA20BD0FB677
:0E7F7000F894FA9AF99A0FBE0895F894FFCF8C
:0400000300007C007D
:00000001FF
